{
  "_format": "hh-sol-artifact-1",
  "contractName": "CrowdFunding",
  "sourceName": "contracts/CrowdFunding.sol",
  "abi": [
    {
      "inputs": [
        {
          "internalType": "uint256",
          "name": "",
          "type": "uint256"
        }
      ],
      "name": "campaigns",
      "outputs": [
        {
          "internalType": "address",
          "name": "owner",
          "type": "address"
        },
        {
          "internalType": "string",
          "name": "title",
          "type": "string"
        },
        {
          "internalType": "string",
          "name": "description",
          "type": "string"
        },
        {
          "internalType": "uint256",
          "name": "target",
          "type": "uint256"
        },
        {
          "internalType": "uint256",
          "name": "deadline",
          "type": "uint256"
        },
        {
          "internalType": "uint256",
          "name": "amountColected",
          "type": "uint256"
        },
        {
          "internalType": "string",
          "name": "image",
          "type": "string"
        }
      ],
      "stateMutability": "view",
      "type": "function"
    },
    {
      "inputs": [
        {
          "internalType": "address",
          "name": "_owner",
          "type": "address"
        },
        {
          "internalType": "string",
          "name": "_title",
          "type": "string"
        },
        {
          "internalType": "string",
          "name": "_description",
          "type": "string"
        },
        {
          "internalType": "uint256",
          "name": "_target",
          "type": "uint256"
        },
        {
          "internalType": "uint256",
          "name": "_deadline",
          "type": "uint256"
        },
        {
          "internalType": "string",
          "name": "_image",
          "type": "string"
        }
      ],
      "name": "createCampaign",
      "outputs": [
        {
          "internalType": "uint256",
          "name": "",
          "type": "uint256"
        }
      ],
      "stateMutability": "nonpayable",
      "type": "function"
    },
    {
      "inputs": [
        {
          "internalType": "uint256",
          "name": "_id",
          "type": "uint256"
        }
      ],
      "name": "donateToCampaign",
      "outputs": [],
      "stateMutability": "payable",
      "type": "function"
    },
    {
      "inputs": [],
      "name": "getCampaign",
      "outputs": [
        {
          "components": [
            {
              "internalType": "address",
              "name": "owner",
              "type": "address"
            },
            {
              "internalType": "string",
              "name": "title",
              "type": "string"
            },
            {
              "internalType": "string",
              "name": "description",
              "type": "string"
            },
            {
              "internalType": "uint256",
              "name": "target",
              "type": "uint256"
            },
            {
              "internalType": "uint256",
              "name": "deadline",
              "type": "uint256"
            },
            {
              "internalType": "uint256",
              "name": "amountColected",
              "type": "uint256"
            },
            {
              "internalType": "string",
              "name": "image",
              "type": "string"
            },
            {
              "internalType": "address[]",
              "name": "donators",
              "type": "address[]"
            },
            {
              "internalType": "uint256[]",
              "name": "donations",
              "type": "uint256[]"
            }
          ],
          "internalType": "struct CrowdFunding.Campaign[]",
          "name": "",
          "type": "tuple[]"
        }
      ],
      "stateMutability": "view",
      "type": "function"
    },
    {
      "inputs": [
        {
          "internalType": "uint256",
          "name": "_id",
          "type": "uint256"
        }
      ],
      "name": "getDonators",
      "outputs": [
        {
          "internalType": "address[]",
          "name": "",
          "type": "address[]"
        },
        {
          "internalType": "uint256[]",
          "name": "",
          "type": "uint256[]"
        }
      ],
      "stateMutability": "view",
      "type": "function"
    },
    {
      "inputs": [],
      "name": "numberOfCampaign",
      "outputs": [
        {
          "internalType": "uint256",
          "name": "",
          "type": "uint256"
        }
      ],
      "stateMutability": "view",
      "type": "function"
    }
  ],
  "bytecode": "0x6080604052600060015534801561001557600080fd5b50610fa0806100256000396000f3fe6080604052600436106100555760003560e01c80630fa91fa91461005a578063141961bc14610091578063236b8e3a146100c457806342a4fda8146100e65780639943e3a1146100fb578063ab4a0b3214610129575b600080fd5b34801561006657600080fd5b5061007a6100753660046109a9565b61013f565b6040516100889291906109fe565b60405180910390f35b34801561009d57600080fd5b506100b16100ac3660046109a9565b61020e565b6040516100889796959493929190610aa5565b3480156100d057600080fd5b506100d96103eb565b6040516100889190610b49565b6100f96100f43660046109a9565b61078d565b005b34801561010757600080fd5b5061011b610116366004610cfb565b6108a5565b604051908152602001610088565b34801561013557600080fd5b5061011b60015481565b600081815260208181526040918290206007810180548451818502810185019095528085526060948594929360080192909184918301828280156101ac57602002820191906000526020600020905b81546001600160a01b0316815260019091019060200180831161018e575b50505050509150808054806020026020016040519081016040528092919081815260200182805480156101fe57602002820191906000526020600020905b8154815260200190600101908083116101ea575b5050505050905091509150915091565b600060208190529081526040902080546001820180546001600160a01b03909216929161023a90610db4565b80601f016020809104026020016040519081016040528092919081815260200182805461026690610db4565b80156102b35780601f10610288576101008083540402835291602001916102b3565b820191906000526020600020905b81548152906001019060200180831161029657829003601f168201915b5050505050908060020180546102c890610db4565b80601f01602080910402602001604051908101604052809291908181526020018280546102f490610db4565b80156103415780601f1061031657610100808354040283529160200191610341565b820191906000526020600020905b81548152906001019060200180831161032457829003601f168201915b50505050509080600301549080600401549080600501549080600601805461036890610db4565b80601f016020809104026020016040519081016040528092919081815260200182805461039490610db4565b80156103e15780601f106103b6576101008083540402835291602001916103e1565b820191906000526020600020905b8154815290600101906020018083116103c457829003601f168201915b5050505050905087565b6060600060015467ffffffffffffffff81111561040a5761040a610c58565b60405190808252806020026020018201604052801561049357816020015b61048060405180610120016040528060006001600160a01b0316815260200160608152602001606081526020016000815260200160008152602001600081526020016060815260200160608152602001606081525090565b8152602001906001900390816104285790505b50905060005b60015481101561078757600081815260208181526040918290208251610120810190935280546001600160a01b03168352600181018054919392849290840191906104e390610db4565b80601f016020809104026020016040519081016040528092919081815260200182805461050f90610db4565b801561055c5780601f106105315761010080835404028352916020019161055c565b820191906000526020600020905b81548152906001019060200180831161053f57829003601f168201915b5050505050815260200160028201805461057590610db4565b80601f01602080910402602001604051908101604052809291908181526020018280546105a190610db4565b80156105ee5780601f106105c3576101008083540402835291602001916105ee565b820191906000526020600020905b8154815290600101906020018083116105d157829003601f168201915b5050505050815260200160038201548152602001600482015481526020016005820154815260200160068201805461062590610db4565b80601f016020809104026020016040519081016040528092919081815260200182805461065190610db4565b801561069e5780601f106106735761010080835404028352916020019161069e565b820191906000526020600020905b81548152906001019060200180831161068157829003601f168201915b505050505081526020016007820180548060200260200160405190810160405280929190818152602001828054801561070057602002820191906000526020600020905b81546001600160a01b031681526001909101906020018083116106e2575b505050505081526020016008820180548060200260200160405190810160405280929190818152602001828054801561075857602002820191906000526020600020905b815481526020019060010190808311610744575b50505050508152505083838151811061077357610773610de8565b602090810291909101015250600101610499565b50919050565b60015481106107e35760405162461bcd60e51b815260206004820152601760248201527f43616d706169676e20646f6573206e6f7420657869737400000000000000000060448201526064015b60405180910390fd5b600081815260208181526040808320600781018054600180820183559186528486200180546001600160a01b0319163317905560088201805491820181558552928420349301839055805491519293909290916001600160a01b03169084908381818185875af1925050503d806000811461087a576040519150601f19603f3d011682016040523d82523d6000602084013e61087f565b606091505b50509050801561089f578282600501546108999190610e14565b60058301555b50505050565b60015460009081526020819052604081206004810154421161091f5760405162461bcd60e51b815260206004820152602d60248201527f74686520646561646c696e652073686f756c642062652074686520646174652060448201526c696e207468652066757475726560981b60648201526084016107da565b80546001600160a01b0319166001600160a01b038916178155600181016109468882610e7e565b50600281016109558782610e7e565b50600381018590556004810184905560006005820155600681016109798482610e7e565b506001805490600061098a83610f3e565b91905055506001805461099d9190610f57565b98975050505050505050565b6000602082840312156109bb57600080fd5b5035919050565b60008151808452602080850194506020840160005b838110156109f3578151875295820195908201906001016109d7565b509495945050505050565b604080825283519082018190526000906020906060840190828701845b82811015610a405781516001600160a01b031684529284019290840190600101610a1b565b5050508381036020850152610a5581866109c2565b9695505050505050565b6000815180845260005b81811015610a8557602081850181015186830182015201610a69565b506000602082860101526020601f19601f83011685010191505092915050565b6001600160a01b038816815260e060208201819052600090610ac990830189610a5f565b8281036040840152610adb8189610a5f565b90508660608401528560808401528460a084015282810360c0840152610b018185610a5f565b9a9950505050505050505050565b60008151808452602080850194506020840160005b838110156109f35781516001600160a01b031687529582019590820190600101610b24565b600060208083018184528085518083526040925060408601915060408160051b87010184880160005b83811015610c4a57888303603f19018552815180516001600160a01b0316845261012088820151818a870152610baa82870182610a5f565b9150508782015185820389870152610bc28282610a5f565b606084810151908801526080808501519088015260a0808501519088015260c080850151888303828a01529193509150610bfc8382610a5f565b9250505060e08083015186830382880152610c178382610b0f565b925050506101008083015192508582038187015250610c3681836109c2565b968901969450505090860190600101610b72565b509098975050505050505050565b634e487b7160e01b600052604160045260246000fd5b600082601f830112610c7f57600080fd5b813567ffffffffffffffff80821115610c9a57610c9a610c58565b604051601f8301601f19908116603f01168101908282118183101715610cc257610cc2610c58565b81604052838152866020858801011115610cdb57600080fd5b836020870160208301376000602085830101528094505050505092915050565b60008060008060008060c08789031215610d1457600080fd5b86356001600160a01b0381168114610d2b57600080fd5b9550602087013567ffffffffffffffff80821115610d4857600080fd5b610d548a838b01610c6e565b96506040890135915080821115610d6a57600080fd5b610d768a838b01610c6e565b9550606089013594506080890135935060a0890135915080821115610d9a57600080fd5b50610da789828a01610c6e565b9150509295509295509295565b600181811c90821680610dc857607f821691505b60208210810361078757634e487b7160e01b600052602260045260246000fd5b634e487b7160e01b600052603260045260246000fd5b634e487b7160e01b600052601160045260246000fd5b80820180821115610e2757610e27610dfe565b92915050565b601f821115610e79576000816000526020600020601f850160051c81016020861015610e565750805b601f850160051c820191505b81811015610e7557828155600101610e62565b5050505b505050565b815167ffffffffffffffff811115610e9857610e98610c58565b610eac81610ea68454610db4565b84610e2d565b602080601f831160018114610ee15760008415610ec95750858301515b600019600386901b1c1916600185901b178555610e75565b600085815260208120601f198616915b82811015610f1057888601518255948401946001909101908401610ef1565b5085821015610f2e5787850151600019600388901b60f8161c191681555b5050505050600190811b01905550565b600060018201610f5057610f50610dfe565b5060010190565b81810381811115610e2757610e27610dfe56fea2646970667358221220934bb54a5bd061310df17e265f84e82b76db716baa61a1c8975e6e034159551e64736f6c63430008170033",
  "linkReferences": {},
  "deployedLinkReferences": {}
}